:020000006B2B68
:10000800FF00030E83018316B3000A08B4008A01B7
:1000180001308312B000FD308B05831634088A0046
:0A002800330E8300FF0E7F0E090067
:1000320083160313A701A8013D082802031D2328E4
:100042003C082702031839288312EE01EF01003021
:100052006F02031D2E28A5306E0203183428EE0A03
:100062000319EF0A28288316A70A0319A80A1D28CC
:02007200080084
:100074000F30831203130805F100F03083163B059B
:10008400F0007008710483128800081488140000BA
:10009400881001308316BC000030BD0019200F30D9
:1000A40083120805F20083163B08F000F00D70106F
:1000B400F00D7010F00D7010F00D701070087204D7
:1000C4008312880088140000881003308316BC0053
:0800D4000030BD0019200800F6
:1000DC0083120313F801F9011030FC00710DF80DB7
:1000EC00F90D7408F8027508031C750FF902031852
:1000FC0086287408F80775080318750FF90703109C
:0A010C00F00DF10DFC0B7428080043
:0E011600831603132B088A002A0882000800B3
:1001240083120313FB01FA01F9018030F800F10C8A
:10013400F00C031CA6287408F90775080318750F3A
:10014400FA070318FB0A0310F01FAE287408FA0715
:1001540075080318750FFB07FB0CFA0CF90CF80C67
:10016400031C99287B08F3007A08F2007908F1004F
:060174007808F00008000D
:10017A0083120313FB01FA01F901F801A001730DBF
:10018A00F80D7408F8027508031C750FF902760851
:10019A00031C760FFA027708031C770FFB02000193
:1001AA00031C0130A002F30D0730FC00730DF80D9B
:1001BA00F90DFA0DFB0DA00D7408731CF628F80250
:1001CA007508031C750FF9027608031C760FFA02EC
:1001DA007708031C770FFB020001031C0130A00201
:1001EA000729F80775080318750FF9077608031821
:1001FA00760FFA0777080318770FFB070001031831
:10020A000130A007F30DFC0BDB28720DF80DF90D78
:10021A00FA0DFB0DA00D7408731C2529F802750848
:10022A00031C750FF9027608031C760FFA02770889
:10023A00031C770FFB020001031C0130A0023629C0
:10024A00F80775080318750FF90776080318760F6B
:10025A00FA0777080318770FFB0700010318013024
:10026A00A007F20D0730FC00720DF80DF90DFA0D1A
:10027A00FB0DA00D7408721C5429F8027508031CA2
:10028A00750FF9027608031C760FFA027708031C29
:10029A00770FFB020001031C0130A0026529F80751
:1002AA0075080318750FF90776080318760FFA0709
:1002BA0077080318770FFB07000103180130A0071E
:1002CA00F20DFC0B3929710DF80DF90DFA0DFB0D24
:1002DA00A00D7408721C8329F8027508031C750F97
:1002EA00F9027608031C760FFA027708031C770FC7
:1002FA00FB020001031C0130A0029429F8077508CB
:10030A000318750FF90776080318760FFA077708A6
:10031A000318770FFB07000103180130A007F10D3E
:10032A000730FC00710DF80DF90DFA0DFB0DA00D4B
:10033A007408711CB229F8027508031C750FF902BA
:10034A007608031C760FFA027708031C770FFB0264
:10035A000001031C0130A002C329F807750803181D
:10036A00750FF90776080318760FFA077708031846
:10037A00770FFB07000103180130A007F10DFC0BF2
:10038A009729700DF80DF90DFA0DFB0DA00D7408E3
:10039A00711CE129F8027508031C750FF902760829
:1003AA00031C760FFA027708031C770FFB02000181
:1003BA00031C0130A002F229F80775080318750F0B
:1003CA00F90776080318760FFA0777080318770FE4
:1003DA00FB07000103180130A007F00D0730FC00ED
:1003EA00700DF80DF90DFA0DFB0DA00D7408701CB7
:1003FA00102AF8027508031C750FF9027608031C07
:10040A00760FFA027708031C770FFB020001031C20
:10041A000130A002212AF80775080318750FF90799
:10042A0076080318760FFA0777080318770FFB0781
:10043A00000103180130A007F00DFC0BF529701814
:10044A00342A7408F80775080318750FF90776082F
:10045A000318760FFA0777080318770FFB070800C7
:10046A000F30831203130805F100F03083163A05A2
:10047A00F0007008710483128800081088140000C4
:10048A00881001308316BC000030BD0019200F30DF
:10049A0083120805F20083163A08F000F00D701076
:1004AA00F00D7010F00D7010F00D701070087204DD
:1004BA008312880088140000881003308316BC0059
:0804CA000030BD0019200800FC
:1004D200831603133A0884000008003A0319782AA5
:1004E2003A0884000008BB003A20BA0A692A0800C8
:1004F200DF30831203130C05F000031D812A792AD1
:0A050200DF308C051A08F000080035
:10050C00013083160313BA0035220330BC000030CF
:06051C00BD0019200800DB
:1005220083160313A9013508013C031CA22A0F30CC
:100532003605F000F0177008A9007008BA003522DD
:10054200AC2A0F303605F000C030F0047008A90064
:0E0552007008BA0035223708BA006922080086
:1005600083160313B801053038020318BE2A380871
:100570003707840020308000B80AB32A38083707CC
:1005800084008001B80338083707B9000A30F40046
:10059000F5013508F0003608F1006E207808F0000B
:1005A0007908F1003030F0078316390884007008AC
:1005B00080000A30F400F5013508F0003608F1003B
:1005C0006E2070088316B5007108B6000030710601
:1005D000031DEC2A00307006031DEF2AF12AB80330
:0405E000C32A080022
:1005E400831203131F151F1DF82AF52A1E08F10094
:1005F400F00183161E08F0040030F104F430F40016
:100604000130F5009220FF30F4000330F5006E2035
:020614000800DC
:100616008B208A110A128000840AAA0A0319AB0ADF
:08062600F003031D0B2B08007B
:10062E00CE30831603139F00413083129F0001309A
:06063E0083168500080090
:10064400C030831603138700203098009030831243
:1006540098000630F00083163508F4003608F500DB
:100664000030F51BFF30F600F70070080319412B2A
:10067400F40DF50DF60DF70D7410FF3E382B003018
:10068400F0001230F1007A30F2000030F300BD20A7
:080694007003831699000800B1
:10069C008316031388013430FC00F130FD00FD0B90
:1006AC00552BFC0B552B000000000230BA003522F4
:1006BC002830BA0035220130BA0035220C30BA008D
:0A06CC0035220630BA00352208007E
:1006D600EA24803083160313B5002530B6002223A2
:1006E6000230FB000430FC00BA30FD00FD0B792B14
:1006F600FC0B792BFB0B792B00004E2390308B00E3
:100706004E2317230130B500B6012130B7009122E0
:10071600E830BC000330BD001920E730A600831284
:100726003008013A031DB02B86220130B500B60110
:100736003130B7009122F430BC000130BD001920E1
:100746000E308312870488308316BC001330BD0038
:100756001920F13083128705B001F2227008831642
:10076600B200F00A7008B2007008B500B601AC30ED
:10077600B700B022E830BC000330BD001920862245
:100786000130B500B601A030B70091220130B500A6
:100796000530B600AC30B7009122DC30BC00053025
:1007A600BD0019201F303202031CF12B86220130B6
:1007B600B500B6016330B7009122F430BC000130B9
:1007C600BD00192007308312870488308316BC00C9
:1007D6001330BD001920F83083128705792270087E
:1007E6008316A6007008613A031D112C8622F43088
:1007F600BC000130BD0019200130B5000530B6003F
:100806005C30B7009122E830BC000330BD001920EF
:100816000730831287046B308316A6002608623AD7
:10082600031D2D2C8622F430BC000130BD0019209A
:100836000130B5000530B6004230B7009122E830ED
:10084600BC000330BD001920F830831287056B30D9
:100856008316A6002608633A031D492C8622F43027
:10086600BC000130BD0019200130B5000530B600CE
:100876003A30B7009122E830BC000330BD001920A1
:100886000E30831287046B308316A6002608643A5E
:10089600031D652C8622F430BC000130BD001920F2
:1008A6000130B5000530B6005330B7009122E8306C
:1008B600BC000330BD001920F130831287056B3070
:1008C6008316A60083123008013A031D832C862264
:1008D6000130B500B6014A30B7009122E830BC00BD
:1008E6000330BD0019200E3083128704883083162A
:1008F600BC001330BD001920F13083128705B0010A
:10090600831626086B3A031D8D2C8622FA30BC000E
:08091600BD011920922B8E2C6B
:1009D400213084004D3083120313F00094308316C9
:1009E400AA000430AB000B23A0308400063083122D
:1009F4000313F000E1308316AA000430AB000B238C
:020A04000800E8
:100928004C344F344134443449344E344734203401
:0E0938005334593453342E342E342E340034BC
:0209460000347B
:100948005734413452344E3449344E3447342134C8
:02095800003469
:10095A00503455344D34503420344F344E340034EE
:10096A00463441344E3420344F344634463400340D
:10097A005734413452344E3449344E344734213496
:02098A00003437
:10098C00503455344D34503420344F34463446347E
:02099C00003425
:0E099E00463441344E3420344F344E3400344D
:1009AC0048344934473448342034543445344D3475
:0609BC0050342134003428
:0C09C200543465346D3470343A34003421
:0409CE006B34003452
:02400E004A2F37
:00000001FF
